:020000000828CE
:1000100083160317880189018B01803081008312C8
:10002000870188018901831603138E010030950032
:1000300096019D01013085000F3086000030870059
:1000400083129F0197019D01980194019001003056
:1000500085000030860001308700A001A101A201C7
:10006000103086000030061872280030861872287A
:100070000030061972280030861972282030860058
:100080000030061872280030861872283930061998
:1000900072283830861972284030860037300618AA
:1000A0007228363086187228353006197228343096
:1000B00086197228803086000930061877280630A5
:1000C0008618772803300619772800308619772894
:1000D00087013028A330A0000000A00B6D28A10BE1
:1000E0006A2808006A20013005068700302883123C
:1000F000031382070A30A10072280B30A100722876
:100100000C30A10072280D30A10072280E30A10021
:1001100072280F30A10072281030A1007228203000
:10012000A10072283030A10072284030A10072284E
:100130005030A10072286030A10072287030A100F8
:1001400072288030A10072289030A1007228A0305F
:04015000A100722870
:04400E00F120FF3F5F
:00000001FF
