:020000000828CE
:0200080041288D
:1000100027008E0126008E01250018308E00240056
:100020008E012030920036309500813096000B30E2
:10003000970080309400FE3093009D0123008E01D4
:100040002200210018308E00803095001A1B2628CF
:10005000783099009A1A2A28083091002000F93047
:100060008E00A001A101F001F101F201F301F40100
:10007000F501F6019111C0308B008E1420000E1195
:100080003E28A1000808A00091194E2820009111D7
:100090002400151620088800210809000E152400E8
:1000A000110814185128941E46282000FD00053020
:1000B0007006031984280430700603198028033061
:1000C000700603197C280230700603197828013065
:1000D0007006031974280030F006031970284628AA
:1000E0007D08F100F00A46287D08F200F00A462853
:1000F0007D08F300F00A46287D08F400F00A46283F
:100100007D08F500F00A46287D08F600F001462833
:020000040001F9
:04000E00E401FF18F2
:00000001FF
