:020000000828CE
:020008005D2871
:1000100027008C018D018E0126008C018D018E013F
:1000200025008C018D0118308E0024008C018D017B
:100030008E012030920036309500813096000830D5
:10004000970080309400FE3093009D0123008C01C6
:100050008D018E01220021008C018D0118308E004F
:10006000803095001A1B3228783099009A1A362869
:10007000083091002000FF308C00FF308D00F930F7
:100080008E00A001A101A201A301A401A501F0011C
:10009000F101F201F301AA01AB01AC01AD01AE0126
:1000A0009111C0308B008E1455282000FF308C0039
:1000B000FF308D00FB308E005528A1000808A000FD
:1000C000911914216B20200091112400151620088D
:1000D00088002108090020000030240603190800C8
:1000E00080302206031D080023082406031D7928FA
:1000F0009928AC012308EA202C188528AC188A28F6
:100100002C198F28AC19942808008C113F212C1031
:100110008C1508000C113F21AC100C1508008C1038
:100120003F212C118C1408000C103F21AC110C1431
:1001300008003B3024020318080024081C3C031864
:100140000800230824060319E7202408EA20AE202B
:100150002408A300A201A401A50108002C18B728B7
:10016000AC18C3282C19CF28AC19DB2808002D188F
:10017000BE280D103F21AC010D1408008E133F2145
:10018000AC018E1708002D18CA280E133F21AC01B0
:100190000E1708008E123F21AC018E1608002D1894
:1001A000D6280D123F21AC010D1608008D113F21FC
:1001B000AC018D1508002D18E2280D113F21AC016E
:1001C0000D1508008D103F21AC018D140800013081
:1001D000AD060800AE002A302E0203180C292E08A6
:1001E0001C3C03180C2931302E0203180E292E084E
:1001F000213C03180E2936302E02031810292E0830
:10020000283C031810293B302E02031812292E080F
:100210002D3C0318122908002C140800AC14080007
:100220002C150800AC1508001D2120007108A20043
:100230007208A4007308A50008000E152400110818
:1002400014182029941E08002000F70002307006C0
:1002500003193B2901307006031937290030F006D5
:100260000319332908007708F100F00A080077081D
:10027000F200F00A08007708F300F00108002000FF
:100280000130AB000130AA00AA0B4429AB0B422974
:02029000080064
:020000040001F9
:04000E00E401FF18F2
:00000001FF
