:020000000828CE
:02000800472887
:100010008316031700308700013088008901803083
:1000200081008312870188018901831603136430DC
:100030009200243098001930990019309A009D01DF
:100040009F018E0162308C00013085008030870076
:1000500083120430920097019D0190309800940122
:1000600041309F00900100308500003087000C1364
:100070008C128C10C830A400A201A301A801A90110
:10008000C0308B00831203139F141F144228A50055
:100090000308A6008C1A72280C1B54288C189B2865
:1000A00026088300250809009F1854281E08A80068
:1000B00083161E088312A9000C13502821308220B9
:1000C000000000000000280882200000000000005E
:1000D00000000000213082200000000000002908FC
:1000E0008220502888208B202130200603195E288A
:1000F00024302006031D50280311200882202708E1
:10010000A701AF2899008316981C83288312080042
:100110001A08A00008002430200603190800031163
:1001200021302002031808000130A1002008A70098
:100130002708822008008C102118A128A118A728C0
:1001400050280714A20B50280230A1005028071095
:10015000A30B502867308220A10187015028A200FC
:0801600022082402A3009B28E1
:04400E00F120FF3F5F
:00000001FF
