:020000000828CE
:0200080044288A
:100010008316031701308800890180308100831224
:1000200087018801890183160313643092009F01C0
:100030008E0102308C0000309500003096009D014A
:1000400001308500003086000030870083120430C4
:10005000920041309F0897019D0198019401900101
:100060000130850000308600003087008C10C830D9
:10007000A400C0308B00831203139F141F149F1819
:100080003F281E08A0003B288C1021186828A118C2
:100090006E280130A100A0019E1959201E1A5C2073
:1000A0009E1A5F201E1B62209E1B6520200874285C
:1000B00009000330A00708000630A00708000C3034
:1000C000A00708001830A00708003030A00708007B
:1000D0000714A20B09000230A10009000710A30BAE
:1000E0000900A10187010900A00182070530D6207F
:1000F00044280530D62044280630D620442807302E
:10010000D62044280730D62044280830D62044285A
:100110000930D62044280930D62044280A30D62079
:1001200044280B30D62044280B30D62044280C30ED
:10013000D62044280D30D62044280D30D62044281F
:100140000E30D62044280F30D62044280F30D62039
:1001500044281030D62044281130D62044281130AD
:10016000D62044281230D62044281330D6204428E4
:100170001330D62044281430D62044281530D620F9
:1001800044281530D62044281630D620442817306D
:10019000D62044281730D62044281830D6204428AA
:1001A0001930D62044281930D6204428A20022082D
:0601B0002402A300080078
:04400E00F120FF3F5F
:00000001FF
