:020000000828CE
:02000800352899
:1000100083160317880189018312870188018901EA
:100020008316031302309300643092009D019F01F8
:100030008E010A308C0000308500FF30870083126B
:100040000430920097019D01263094009F01900199
:100050000030850000308700A301A401A501A6019E
:100060008C108C11C0308B003428A0000308A10034
:100070008C19422800008C18732800002108830086
:100080002008090083128C118C1943288316941EB2
:10009000652883121308A2008316141C4D28000043
:1000A000000083128C118C195228141683128C11A3
:1000B0008C195728A21B9B28221B9528A21A8F282F
:1000C00083128C118C1961283E28831213080000BA
:1000D00000008316141C6A280000000083128C1193
:1000E0008C196F283E28831203138C1026187D2844
:1000F000A6188328261989283E280514A30B3E2814
:10010000261005103E288514A40B3E28A610851045
:100110003E280515A50B3E28261105113E2826145C
:10012000A2122208A120A3007328A61422132208D9
:10013000A120A40073282615A2132208A120A5003F
:10014000732882070534053406340634073407342F
:1001500008340834093409340A340A340B340B34B3
:100160000C340C340D340D340E340E340F340F3483
:100170001034113412341334143415341634173443
:0401800018341934E2
:04400E00F120FF3F5F
:00000001FF
