:020000000828CE
:02000800362898
:1000100083160317880189018312870188018901EA
:100020008316031302309300643092009D019F01F8
:100030008E010A308C0000308500FF30870083126B
:100040000430920097019D01263094009F01900199
:100050000030850000308700A301A401A501A6019E
:10006000A9018C108C11C0308B003528A00003082A
:10007000A1008C19432800008C1874280000210866
:1000800083002008090083128C118C1944288316E0
:10009000941E662883121308A2008316141C4E288F
:1000A0000000000083128C118C195328141683123F
:1000B0008C118C195828A21B9C20221B9620A21A56
:1000C000902083128C118C1962283F288312130808
:1000D000000000008316141C6B280000000083122F
:1000E0008C118C1970283F28831203138C1026184A
:1000F0007E20A618842026198A203F280514A30BE9
:1001000008002610051008008514A40B0800A6108E
:10011000851008000515A50B08002611051108001B
:100120002614A2122208A220A3000800A61422135B
:100130002208A220A40008002615A2132208A2204B
:10014000A500080082070534053406340634073458
:10015000073408340834093409340A340A340B34B7
:100160000B340C340C340D340D340E340E340F3487
:100170000F3410341134123413341434153416344B
:0601800017341834193495
:04400E00F120FF3F5F
:00000001FF
