:020000000828CE
:02000800392895
:10001000831603178801890100308100831287014C
:1000200088018901831603138E0181309500813088
:1000300096009D01003085008130860000308700E9
:1000400083129F0197019D01980194019001003056
:1000500085000030860000308700A001A101A201C8
:100060000B1088308B00A301A401A501313087005B
:1000700033288B13A6000308A8000A08AA0020084A
:10008000A3002108A4002208A5000B10861F5128F8
:10009000061C7228280883002A088A0026080B10EC
:1000A0000900A6000A08AA000308A8008316031383
:1000B0009613161083120313373087008D20831692
:1000C00003139617161483120313280883002A08B3
:1000D0008A000B102308A0002408A1002508A20014
:1000E00026080900A7000A08AB000308A9000B10A6
:1000F000831603131610831203138B1736308700F1
:100100008D20290883002B088A00270883160313F3
:100110001614831203130B1009001430A200CF3001
:10012000A100A030A000A00B9328A10B9128A20B46
:040130008F2808000C
:04400E00F120FF3F5F
:00000001FF
