:100F8000C12F831603170030860089018B01803042
:100F900081018312890183160313003095009601A5
:100FA0009D018701831297019D01940190018601A3
:100FB0008701F930A2000830A1005230A000A00B38
:100FC000DF2FA10BDD2F0000000000000000A20BAE
:100FD000DB2F3530870000000000F930A200083018
:100FE000A1005230A000A00BF32FA10BF12F0000A5
:100FF000000000000000A20BEF2F30308700D92F37
:04400E00F120FF3F5F
:00000001FF
