:020000000828CE
:020008003D2891
:10001000831603174030870083128316031364305E
:100020009200243098001930990019309A009D01EF
:1000300022308C00803087008312043092009701B8
:100040009D019030980094019001003087008C123F
:10005000C830A400C0308B00831203132C288312F5
:100060000313243099001A08A00083169818352825
:100070000130A1002008562809008C108C1221188C
:100080004A28A11850281A08A00024302006031D71
:1000900009002F280714A20B09000230A100090053
:1000A0000710A30B0900A101870109008207053091
:1000B000B7203D280530B7203D280630B7203D2821
:1000C0000730B7203D280730B7203D280830B7203B
:1000D0003D280930B7203D280930B7203D280A3097
:1000E000B7203D280B30B7203D280B30B7203D28E6
:1000F0000C30B7203D280D30B7203D280D30B720FB
:100100003D280E30B7203D280F30B7203D280F3056
:10011000B7203D281030B7203D281130B7203D28AA
:100120001130B7203D281230B7203D281330B720BA
:100130003D281330B7203D281430B7203D28153016
:10014000B7203D281530B7203D281630B7203D2870
:100150001730B7203D281730B7203D281830B7207A
:100160003D281930B7203D281930B7203D28A2007E
:0801700022082402A30008008C
:04400E00F120FF3F5F
:00000001FF
