:020000000828CE
:02000800D628F8
:1000100083160317880189018030810083128701CC
:1000200088018901831603138E010030950000308A
:1000300096009D0102308C00073085000F3086004D
:10004000003087008312FA3092004E3092009F01F8
:1000500097019D01980194019001003085000030C6
:100060008600003087001930A0008C100B30A400EF
:10007000A301C0308B00051C4320051D25143B281F
:10008000A32087003B288B1312110B30A30087009D
:100090000708B4202308A320851C9F280B211030BB
:1000A00086000B214630061847280B21453086185C
:1000B00047280B214430061947280B214330861965
:1000C00047280B21203086000B2142300618472894
:1000D0000B214130861847280B2139300619472853
:1000E0000B213830861947280B21403086000B2120
:1000F0003730061847280B213630861847280B2141
:100100003530061947280B213430861947280B2132
:10011000803086000B213330061847280B213230FF
:10012000861847280B213130061947280B2130301B
:10013000861947280B2100302306031D4C288B17F6
:1001400012158C1008008B132408831203178D00DE
:10015000831603178C130C140C18AC288312031786
:100160000C0803138B170800831203178C0003136A
:100170000030240603190800230803178D00831696
:1001800003178C130C158B138B1BC42855308D0053
:10019000AA308D008C148B178C18CC280C118C185D
:1001A000CF280D1283120313A3030800A100030834
:1001B000A2008C10A00BEB281930A0002518FF28F6
:1001C00000300706031DEF20031153300706031DFF
:1001D000F720533087062208830021080900031105
:1001E0005330070603190800533087000800031135
:1001F00000300706031908000030870008002408B3
:10020000A3208700A40300302406031DEB280B3035
:10021000A400A501EB281430A8001430A700193061
:10022000A600A60B1129A70B0F29A80B0D29080062
:04400E00F120FF3F5F
:00000001FF
