:020000000828CE
:02000800C1280D
:1000100083160317880189018030810083128701CC
:1000200088018901831603138E010030950000308A
:1000300096009D0102308C00073085000F3086004D
:10004000003087008312FA3092004E3092009F01F8
:1000500097019D01980194019001003085000030C6
:100060008600003087001930A0008C100130A400F9
:10007000A301C0308B00051C4320051D40283B28F0
:100080008E2087003B288B1312110130A3000A3009
:10009000A4009F208E20870085188A2810308600B3
:1000A0004630061849284530861849284430061934
:1000B00049284330861949282030860042300618E6
:1000C00049284130861849283930061949283830DE
:1000D00086194928403086003730061849283630BE
:1000E0008618492835300619492834308619492898
:1000F0008030860033300618492832308618492867
:100100003130061949283030861949280030230635
:10011000031D4C288B1712158C1008008B138312AB
:1001200003170A308D00831603178C130C140C1858
:100130009728831203170C0803138B1708008312E8
:1001400003178C0003130030240603190800240849
:1001500003178D00831603178C130C158B138B1B41
:10016000AF2855308D00AA308D008C148B178C1859
:10017000B7280C118C18BA280D1283120313A3038D
:100180000800A1000308A2008C10A00BD42819308D
:10019000A00000300706031DD820031153300706C6
:1001A000031DE02053308706220883002108090040
:1001B0000311533007060319080053308700080065
:1001C00003110030070603190800003087000800FB
:04400E00F120FF3F5F
:00000001FF
