:020000000828CE
:020008003E2890
:1000100027008E0126008E01250018308E00240056
:100020008E012030920036309500813096000B30E2
:10003000970080309400FE3093009D0123008E01D4
:100040002200210018308E00803095001A1B2628CF
:10005000783099009A1A2A28083091002000F93047
:100060008E00A001A101F001F101F201F301911153
:10007000C0308B008E1420000E113B28A100080810
:10008000A00091194B28200091112400151620087A
:100090008800210809000E152400110814184E28A4
:1000A000941E43282000F4000330700603196928C9
:1000B00002307006031965280030F0060319612824
:1000C00043287408F100F00A43287408F200F00A8B
:0A00D00043287408F300F0014328F0
:020000040001F9
:04000E00E401FF18F2
:00000001FF
