:020000000828CE
:02000800362898
:1000100083160317003087000130880083128701A0
:1000200088018901831603131930990019309A0049
:10003000273093009D019F018E0140308C000730D6
:10004000850000308700831297019D0198012830B8
:10005000940041309F0090010030850000308700FF
:100060000C13A701C0308B009F143428A000030894
:10007000A1000C1B442821088300200809009F18B8
:100080003F281E080C1308000030270603195328C8
:100090000130270603196428023027060319752842
:1000A0000030A7003B289F121F129F111F113F20F5
:1000B000A200A20C0310A20C0310A20C0310A216A3
:1000C0002213A213A70A3B289F121F129F111F156C
:1000D0003F20A300A30C0310A30C0310A30C0310D8
:1000E000A3122317A313A70A3B289F121F129F15C1
:1000F0001F113F20A400A40C0310A40C0310A40C97
:100100000310A4122413A417A70A240888203B284C
:10011000831611141118FF2F8312023093008316D7
:100120001418FF2F1116111B07288312240893009F
:1001300083161418FF2F11151119FF2F83120800B1
:04400E00F120FF3F5F
:00000001FF
