:100F7400BB2F831603170030860089018B01803054
:100F840081018312890183160313003095009601B1
:100F94009D018701831297019D01940190018601AF
:100FA4008701F930A2000830A1005230A000A00B44
:100FB400D92FA10BD72F0000000000000000A20BC6
:100FC400D52F00000000000035308700000000002D
:100FD400F930A2000830A1005230A000A00BF02F7D
:100FE400A10BEE2F0000000000000000A20BEC2F6C
:0C0FF40000000000000030308700D32F08
:04400E00F120FF3F5F
:00000001FF
