:020000000828CE
:02000800392895
:10001000831603178801890100308100831287014C
:1000200088018901831603138E0181309500813088
:1000300096009D01003085008130860000308700E9
:1000400083129F0197019D01980194019001003056
:1000500085000030860000308700A001A101A201C8
:100060000B1088308B00A301A401A501313087005B
:1000700033288B13A6000308A8000A08AA0020084A
:10008000A3002108A4002208A5000B10861F5128F8
:10009000061C7328280883002A088A0026080B10EB
:1000A00009008B13A6000A08AA000308A8008316FB
:1000B000031396138312031337308700912083169E
:1000C0000313961783120313363087002808830022
:1000D0002A088A000B102308A0002408A100250884
:1000E000A20026080900A7000A08AB000308A9001F
:1000F0000B10831603131610831203138B1736305D
:1001000087009120313087008B1383160313161458
:1001100083120313290883002B088A0027080B1079
:1001200009001430A200CF30A100A030A000A00B25
:0C0130009728A10B9528A20B932808002B
:04400E00F120FF3F5F
:00000001FF
