:020000000828CE
:02000800462888
:1000100083160317880189018030810083128701CC
:1000200088018901831603138E0102308C00003091
:100030009500003096009D01003085000330860059
:10004000003087008312FF309200563092009F01EB
:1000500097019D01980194019001003085000030C6
:100060008600003087008C10C0308B008618412835
:1000700006183C28A20A36288618A20A861CA10A5D
:1000800036280618A20A061CA10A36288C10231846
:100090007628A318802823198828A319922886185F
:1000A000702806187328A8017030A5000130A3003D
:1000B000271C09001630A6000230A300A71C090067
:1000C0007030A5000430A300271D09001630A600DB
:1000D0000830A300A203A71D0900A301A70109007E
:1000E000061854289B28861854289E2824308700F8
:1000F000A003A50B09000130A700A30128140900E3
:1001000022308700A60B09000330A700A3010900D5
:1001100081308700A103A50B09000730A700A301C8
:10012000A814090041308700A103A60B09000F3075
:10013000A700A3010900281C54287628A81C5428CD
:0201400088280D
:04400E00F120FF3F5F
:00000001FF
