:100EC400632F83160317890188018B018030810009
:100ED400831289018701880183160313003095006A
:100EE40096019D01013085000F3086000030870097
:100EF4008E01831297019D01940190019F0100309E
:100F040085000030860001308700103086002D30C7
:100F14000618CF272A308618CF2727300619CF275F
:100F240024308619CF272030860021300618CF2799
:100F34001E308618CF271B300619CF271830861984
:100F4400CF274030860015300618CF271230861878
:100F5400CF270F300619CF270C308619CF278030C2
:100F6400860009300618CF2706308618CF270330AD
:100F74000619CF2700308619CF27872F2108A20012
:100F8400A330A0000000A00BC52FA20BC22F0800A5
:100F940001300506C0278700872F82070A30A10089
:100FA40008000B30A10008000C30A10008000D302F
:100FB400A10008000E30A10008000F30A1000800B5
:100FC4001030A10008002030A10008003030A1003A
:100FD40008004030A10008005030A1000800603033
:100FE400A10008007030A10008008030A1000800B2
:0C0FF4009030A1000800A030A10008000F
:04400E00F120FF3F5F
:00000001FF
