:020000000828CE
:0200080031289D
:100010008316031701308800890183128701880144
:10002000890183160313093093009D019F018E01FE
:1000300040308C0007308500FF3087008312970125
:100040009D012830940041309F00900100308500D0
:10005000003087000C13A701C0308B009F14812053
:100060002E28A0000308A1000C1B3F2821088300B4
:10007000200809009F183A281E080C1308000030B9
:10008000270603194E280130270603195F2802307E
:100090002706031970280030A70036289F121F1268
:1000A0009F111F113A20A200A20C0310A20C0310F2
:1000B000A20C0310A2162213A213A70A36289F121D
:1000C0001F129F111F153A20A300A30C0310A30CAD
:1000D0000310A30C0310A3122317A313A70A362897
:1000E0009F121F129F151F113A20A400A40C031089
:1000F000A40C0310A40C0310A4122413A417A70A21
:100100003628831611141118FF2F83120230930022
:1001100083161418FF2F111B07288312240893003D
:1001200083161418FF2F11151119FF2F83120800C1
:04400E00F120FF3F5F
:00000001FF
