:020000000828CE
:02000800352899
:1000100083160317880189018312870188018901EA
:100020008316031302309300643092009D019F01F8
:100030008E010A308C0000308500FF30870083126B
:100040000430920097019D01263094009F01900199
:100050000030850000308700A301A401A501A6019E
:100060008C108C11C0308B003428A0000308A10034
:100070008C1940288C185228210883002008090078
:1000800013088C1113183C2846283C288316941E0C
:100090003C288312A200A21B7F20221B7920A21AD7
:1000A00073203C2883128C1026185B20A61863202E
:1000B00026196B203C280514A30B08000130A3006F
:1000C0002610051008008514A40B08000130A400B8
:1000D000A610851008000515A50B08000130A50025
:1000E0002611051108002614A21222088520A3005B
:1000F0000800A614221322088520A4000800261553
:10010000A21322088520A5000800820705340534C3
:100110000634063407340734083408340934093403
:100120000A340A340B340B340C340C340D340D34D3
:100130000E340E340F340F3410341134123413349F
:0C014000143415341634173418341934F4
:04400E00F120FF3F5F
:00000001FF
